S01B00002E2F44656275672F536964655363726F6C6C65722E7331399B
S315200000000248854600F024F8FEE7C04600C00120DD
S3152000001080B500AF084B094A1A60094B094A1A6095
S31520000020094BAA2212041A60084B084A1278D2B247
S315200000301A70C046BD4680BD001002405555555524
S31520000040000C0240555500550C0C0240150C024080
S3152000005090B587B000AF786039601023FB183B61FC
S315200000600C23FB18FB60FFF7D3FF00F039FA00F0F2
S3152000007062FA3B691B6A38690122042198473B6969
S31520000080DB693A6910009847FB68DB69FA6810005B
S315200000909847282000F07DF81723FC1800F0A2FBD3
S315200000A0030023701723FB181B78022B02D0082B82
S315200000B008D00EE03B691B6A3869022252420021B1
S315200000C098470CE03B691B6A386902220021984751
S315200000D005E03B691B6A3869002200219847CEE774
S315200000E080B500AF0C4B00221A600C4B29221A60F7
S315200000F00B4B00221A60084B05221A60C046064B9D
S315200001001B680F331B6801221340F8D0024B0022D4
S315200001101A60C046BD4680BD10E000E014E000E055
S3152000012018E000E080B500AF0C4B00221A600C4BA3
S3152000013053221A600B4B00221A60084B05221A60C4
S31520000140C046064B1B680F331B6801221340F8D0AC
S31520000150024B00221A60C046BD4680BD10E000E07A
S3152000016014E000E018E000E080B584B000AF7860CD
S315200001700023FB6004E0FFF7B3FFFB680133FB605D
S315200001807B689A00FB689A42F5D8C046BD4604B003
S3152000019080BD80B582B000AF78607A68FA23990076
S315200001A0100000F043FC03007B607B6801337B601A
S315200001B07B681800FFF7D8FFC046BD4602B080BD59
S315200001C080B582B000AF0200FB1D1A700A490A4BA7
S315200001D01B78DAB2FB1D1B781343DBB20B70064A81
S315200001E0054B1B78DBB204218B43DBB21370C04670
S315200001F0BD4602B080BDC0461410024080B582B014
S3152000020000AF0200FB1D1A700C490C4B1B78DBB2A9
S315200002105BB2FA1D127852B2D24352B213405BB28D
S31520000220DBB20B70054A054B1B78DBB204218B43EE
S31520000230DBB21370C046BD4602B080BD141002402A
S3152000024080B582B000AF0200FB1D1A70BB1D0A1CD0
S315200002501A70FB1D1B781800FFF7B2FFBB1D1B7819
S315200002601800FFF7CBFFC046BD4602B080BD80B563
S3152000027082B000AF0200FB1D1A70FB1D1B78082BF5
S315200002800CD002DC002B05D016E0102B0BD0182B3F
S315200002900ED011E01820FFF7B1FF0DE01021082045
S315200002A0FFF7CEFF08E008211020FFF7C9FF03E083
S315200002B01820FFF785FFC046C046BD4602B080BD68
S315200002C080B500AF4020FFF799FF124B124A1A6003
S315200002D001210220FFF7B4FFFFF724FF4020FFF79C
S315200002E06FFFFFF71FFF4020FFF788FFFFF71AFF7A
S315200002F00A4B1B78DBB25BB2002B00DAEEE7C04676
S315200003004020FFF75DFF034B054A1A60C046BD46F5
S3152000031080BDC04600100240555500001110024015
S315200003205555555580B584B000AF0200FB1D1A7097
S315200003304020FFF763FF1B4B1B4A1A600320FFF781
S315200003403FFFFB1D1B781800FFF791FFFFF7EAFE22
S315200003504020FFF735FF154A0F23FB1812781A7035
S315200003604020FFF74BFF0F4B114A1A60FB1D1B78ED
S315200003700822134004D00820FFF779FFFFF7A0FFDB
S31520000380FB1D1B781022134004D01020FFF76FFFAF
S31520000390FFF796FF0F23FB181B781800BD4604B005
S315200003A080BDC04600100240555500001110024085
S315200003B05555555580B582B000AF0200FB1D1A7009
S315200003C0BB1D0A1C1A701A4AFB1D1B781370BB1D15
S315200003D01B781800FFF74BFFFFF7A4FE4020FFF71E
S315200003E0EFFEFFF79FFE4020FFF708FFBB1D1B789F
S315200003F00822134004D00820FFF739FFFFF760FFDB
S31520000400BB1D1B781022134004D01020FFF72FFFAE
S31520000410FFF756FF064B00221A704020FFF7D0FE4A
S315200004200020FFF724FFC046BD4602B080BDC0466F
S315200004301510024080B582B000AF0200FB1D1A7075
S31520000440BB1D0A1C1A704020FFF7D8FEBB1D1B7867
S315200004501800FFF70CFF0320FFF7D0FEBB1D1A780C
S31520000460FB1D1B7811001800FFF7A4FFC046BD46F0
S3152000047002B080BD80B582B000AF0200FB1D1A70AD
S31520000480BB1D0A1C1A704020FFF7B8FEBB1D1B7847
S315200004901800FFF7ECFE02210120FFF7D1FEBB1D5D
S315200004A01A78FB1D1B7811001800FFF783FFC04642
S315200004B0BD4602B080BD80B582B000AF0200FB1DF4
S315200004C01A70FB1D1B781800FFF72CFFFB1D1B78ED
S315200004D01800FFF727FF03001800BD4602B080BDB5
S315200004E080B500AF4020FFF76BFE0A20FFF73CFEE9
S315200004F07820FFF783FE1E20FFF74BFE2020FFF714
S315200005005FFE18213E20FFF795FF18213F20FFF7B9
S3152000051091FF1821C020FFF78DFF18214020FFF7FB
S3152000052089FF1821B820FFF785FF0020FFF79FFEDF
S31520000530C046BD4680BD80B582B000AF00237B603B
S315200005401EE07B685BB24822524213435BB2DBB2A9
S3152000055018211800FFF76EFF18214020FFF76AFFC9
S3152000056000233B6006E018210020FFF783FF3B684D
S3152000057001333B603B683F2BF5DD7B6801337B60B5
S315200005807B68072BDDDDC046BD4602B080BD90B539
S3152000059089B000AFF860B9607A60FB685A4253416F
S315200005A0DAB2BB6859424B41DBB21343DBB21900C6
S315200005B0FB6880229A429B415B42DBB20B43BA68BE
S315200005C04021914292415242D2B2134300D0AEE032
S315200005D0BB68013BDB08BB61BB68013B07221340BC
S315200005E0072B2CD89A00544BD3181B689F461F23E1
S315200005F0FB1801221A7023E01F23FB1802221A700F
S315200006001EE01F23FB1804221A7019E01F23FB1873
S3152000061008221A7014E01F23FB1810221A700FE00C
S315200006201F23FB1820221A700AE01F23FB184022E2
S315200006301A7005E01F23FB1880221A7000E0C046BE
S315200006407B68002B06D11F23FB181F22BA181278AD
S31520000650D2431A70FB68402B0AD91E23FB1810229E
S315200006601A70FB68DAB21D23FB18413A1A7009E0AA
S315200006701E23FB1808221A70FB68DAB21D23FB180A
S31520000680013A1A701D23FB181B7840221343DAB255
S315200006901E23FB181B7819001000FFF7CBFEBB6941
S315200006A05BB24822524213435BB2DAB21E23FB18D6
S315200006B01B7819001000FFF7BDFE1723FC181E2318
S315200006C0FB181B781800FFF7F6FE030023701D2386
S315200006D0FB181B7840221343DAB21E23FB181B7823
S315200006E019001000FFF7A6FE7B68002B0AD01F23F7
S315200006F0FB181F22B9181722BA18097812780A434C
S315200007001A7009E01F23FB181F22BA18172179181F
S31520000710127809780A401A701E23FB181A781F23AC
S31520000720FB181B7811001800FFF7A4FE00E0C04656
S31520000730BD4609B090BDC046280C002080B582B0C9
S3152000074000AF78607B68012B09D004D3022B0AD036
S31520000750032B0CD00FE00C4B10221A700FE00A4B23
S3152000076020221A700BE0084B40221A7007E0064B35
S3152000077080221A7003E0044B00221A70C046C0463D
S31520000780BD4602B080BDC046150C024080B582B081
S3152000079000AF134AFB1D12781A70FB1D1B78082226
S315200007A0134001D0032316E0FB1D1B7804221340BF
S315200007B001D002230FE0FB1D1B780222134001D03B
S315200007C0012308E0FB1D1B780122134001D00023E2
S315200007D001E001235B421800BD4602B080BDC04641
S315200007E0110C024080B582B000AF00237B6019E077
S315200007F07B681800FFF7A2FFFFF7C8FF03003B60E6
S315200008003B6801330BD001235B421800FFF796FFAC
S315200008107B689A003B68D318084AD35C09E07B685A
S3152000082001337B607B68032BE2DD0020FFF786FF28
S31520000830FF231800BD4602B080BDC046480C0020EC
S3152000084080B584B000AFF860B9607A60FB68BA689A
S315200008505A60FB687A689A60C046BD4604B080BD7F
S3152000086080B586B000AF78607B68DB683B617B68CB
S315200008701B69FB6000237B6126E07B6819680B23DC
S31520000880FB187A69043252008A18043212781A70D8
S315200008907B6819680A23FB187A69043252008A1881
S315200008A0053212781A700B23FB181A783B69D01878
S315200008B00A23FB181A78FB68D31801221900FFF7C0
S315200008C066FE7B6901337B617B681B681A687B69DE
S315200008D09A42D2DCC046BD4606B080BD80B588B0FF
S315200008E000AF78607B68DB68BB617B681B697B61D6
S315200008F00023FB611EE07B681A68FB6904335B00FA
S31520000900D31804331B783B617B681A68FB69043370
S315200009105B00D31805331B78FB60BA693B69D01896
S315200009207A69FB68D31800221900FFF730FEFB69AD
S315200009300133FB617B681B681A68FB699A42DADC23
S31520000940C046BD4608B080BD80B582B000AF786095
S315200009507B681800FFF7C2FF7B68DB68002B07DD8A
S315200009607B68DA687B681B685B68D318802B02DD9E
S315200009707B6800225A607B681B69002B07DD7B6839
S315200009801A697B681B689B68D318402B02DD7B683D
S3152000099000229A607B68DA687B685B68D2187B687D
S315200009A0DA607B681A697B689B68D2187B681A6153
S315200009B07B681800FFF754FFC046BD4602B080BDD5
S315200009C080B582B000AF786039607B681800FFF789
S315200009D085FF7B68DB68002B07DD7B68DA687B6830
S315200009E01B685B68D318802B09DD3B68DB681A1D02
S315200009F07B68DA603B681B699A1C7B681A617B6896
S31520000A00DA687B685B68D2187B68DA607B681A696B
S31520000A107B689B68D2187B681A617B681800FFF791
S31520000A201FFFC046BD4602B080BD0000002243081D
S31520000A308B4274D303098B425FD3030A8B4244D380
S31520000A40030B8B4228D3030C8B420DD3FF220902C2
S31520000A5012BA030C8B4202D31212090265D0030B81
S31520000A608B4219D300E0090AC30B8B4201D3CB0377
S31520000A70C01A5241830B8B4201D38B03C01A5241B9
S31520000A80430B8B4201D34B03C01A5241030B8B42BB
S31520000A9001D30B03C01A5241C30A8B4201D3CB02A6
S31520000AA0C01A5241830A8B4201D38B02C01A52418B
S31520000AB0430A8B4201D34B02C01A5241030A8B428E
S31520000AC001D30B02C01A5241CDD2C3098B4201D3A6
S31520000AD0CB01C01A524183098B4201D38B01C01A24
S31520000AE0524143098B4201D34B01C01A524103099B
S31520000AF08B4201D30B01C01A5241C3088B4201D34A
S31520000B00CB00C01A524183088B4201D38B00C01AF6
S31520000B10524143088B4201D34B00C01A5241411A1D
S31520000B2000D20146524110467047FFE701B500202A
S31520000B3000F006F802BDC0460029F7D076E77047D8
S31520000B407047C0460D0000000500000004000000AC
S31520000B500000000101010201030101020202040258
S31520000B600003010302030303040300000000000046
S31520000B700000000000000000040000000200000049
S31520000B800200000000000001010001010000000039
S31520000B90000000000000000000000000000000002F
S31520000BA00000000000000000000000000800000017
S31520000BB003000000070000000000010102020103FB
S31520000BC002030204010500060000000000000000E8
S31520000BD000000000000000000000000000000000EF
S31520000BE0440B00200000000000000000010000006F
S31520000BF00100000061080020DD08002049090020CE
S31520000C0041080020780B00200A00000000000000A8
S31520000C10000000004000000061080020DD080020E0
S31520000C204909002041080020EE050020F805002093
S31520000C30020600200C0600201606002020060020B2
S31520000C402A060020340600200102030A0405060BAA
S30D20000C500708090C0E000F0D28
S70520000000DA
